{
  "abi": [
    {
      "inputs": [],
      "stateMutability": "nonpayable",
      "type": "constructor"
    },
    {
      "anonymous": false,
      "inputs": [
        {
          "indexed": true,
          "internalType": "address",
          "name": "owner",
          "type": "address"
        },
        {
          "indexed": true,
          "internalType": "address",
          "name": "spender",
          "type": "address"
        },
        {
          "indexed": false,
          "internalType": "uint256",
          "name": "value",
          "type": "uint256"
        }
      ],
      "name": "Approval",
      "type": "event"
    },
    {
      "anonymous": false,
      "inputs": [
        {
          "indexed": true,
          "internalType": "address",
          "name": "from",
          "type": "address"
        },
        {
          "indexed": true,
          "internalType": "address",
          "name": "to",
          "type": "address"
        },
        {
          "indexed": false,
          "internalType": "uint256",
          "name": "value",
          "type": "uint256"
        }
      ],
      "name": "Transfer",
      "type": "event"
    },
    {
      "inputs": [
        {
          "internalType": "address",
          "name": "from_",
          "type": "address"
        },
        {
          "internalType": "uint256",
          "name": "amount_",
          "type": "uint256"
        }
      ],
      "name": "_burn",
      "outputs": [],
      "stateMutability": "nonpayable",
      "type": "function"
    },
    {
      "inputs": [
        {
          "internalType": "address",
          "name": "to_",
          "type": "address"
        },
        {
          "internalType": "uint256",
          "name": "amount_",
          "type": "uint256"
        }
      ],
      "name": "_mint",
      "outputs": [],
      "stateMutability": "nonpayable",
      "type": "function"
    },
    {
      "inputs": [
        {
          "internalType": "address",
          "name": "owner_",
          "type": "address"
        },
        {
          "internalType": "address",
          "name": "spender_",
          "type": "address"
        }
      ],
      "name": "allowance",
      "outputs": [
        {
          "internalType": "uint256",
          "name": "",
          "type": "uint256"
        }
      ],
      "stateMutability": "view",
      "type": "function"
    },
    {
      "inputs": [
        {
          "internalType": "address",
          "name": "",
          "type": "address"
        },
        {
          "internalType": "address",
          "name": "",
          "type": "address"
        }
      ],
      "name": "allowances",
      "outputs": [
        {
          "internalType": "uint256",
          "name": "",
          "type": "uint256"
        }
      ],
      "stateMutability": "view",
      "type": "function"
    },
    {
      "inputs": [
        {
          "internalType": "address",
          "name": "to_",
          "type": "address"
        },
        {
          "internalType": "uint256",
          "name": "amount_",
          "type": "uint256"
        }
      ],
      "name": "approve",
      "outputs": [
        {
          "internalType": "bool",
          "name": "",
          "type": "bool"
        }
      ],
      "stateMutability": "nonpayable",
      "type": "function"
    },
    {
      "inputs": [
        {
          "internalType": "address",
          "name": "owner_",
          "type": "address"
        }
      ],
      "name": "balanceOf",
      "outputs": [
        {
          "internalType": "uint256",
          "name": "",
          "type": "uint256"
        }
      ],
      "stateMutability": "view",
      "type": "function"
    },
    {
      "inputs": [
        {
          "internalType": "address",
          "name": "",
          "type": "address"
        }
      ],
      "name": "balances",
      "outputs": [
        {
          "internalType": "uint256",
          "name": "",
          "type": "uint256"
        }
      ],
      "stateMutability": "view",
      "type": "function"
    },
    {
      "inputs": [],
      "name": "decimals",
      "outputs": [
        {
          "internalType": "uint256",
          "name": "",
          "type": "uint256"
        }
      ],
      "stateMutability": "pure",
      "type": "function"
    },
    {
      "inputs": [],
      "name": "name",
      "outputs": [
        {
          "internalType": "string",
          "name": "",
          "type": "string"
        }
      ],
      "stateMutability": "pure",
      "type": "function"
    },
    {
      "inputs": [],
      "name": "symbol",
      "outputs": [
        {
          "internalType": "string",
          "name": "",
          "type": "string"
        }
      ],
      "stateMutability": "pure",
      "type": "function"
    },
    {
      "inputs": [],
      "name": "totalSupply",
      "outputs": [
        {
          "internalType": "uint256",
          "name": "",
          "type": "uint256"
        }
      ],
      "stateMutability": "view",
      "type": "function"
    },
    {
      "inputs": [
        {
          "internalType": "address",
          "name": "from_",
          "type": "address"
        },
        {
          "internalType": "address",
          "name": "to_",
          "type": "address"
        },
        {
          "internalType": "uint256",
          "name": "amount_",
          "type": "uint256"
        }
      ],
      "name": "transferFrom",
      "outputs": [
        {
          "internalType": "bool",
          "name": "",
          "type": "bool"
        }
      ],
      "stateMutability": "nonpayable",
      "type": "function"
    }
  ],
  "bytecode": {
    "object": "0x608060405234801561001057600080fd5b50600180546001600160a01b03191633179055610780806100326000396000f3fe608060405234801561001057600080fd5b50600436106100b45760003560e01c80634e6ec247116100715780634e6ec2471461016257806355b6ed5c146101775780636161eb18146101a257806370a08231146101b557806395d89b41146101de578063dd62ed3e146101ff57600080fd5b806306fdde03146100b9578063095ea7b3146100f357806318160ddd1461011657806323b872dd1461012857806327e235e31461013b578063313ce5671461015b575b600080fd5b60408051808201909152600c81526b447265616d416361646d657960a01b60208201525b6040516100ea91906105d3565b60405180910390f35b61010661010136600461063d565b610238565b60405190151581526020016100ea565b6000545b6040519081526020016100ea565b610106610136366004610667565b61024f565b61011a6101493660046106a3565b60026020526000908152604090205481565b601261011a565b61017561017036600461063d565b610335565b005b61011a6101853660046106c5565b600360209081526000928352604080842090915290825290205481565b6101756101b036600461063d565b610422565b61011a6101c33660046106a3565b6001600160a01b031660009081526002602052604090205490565b604080518082019091526005815264445245414d60d81b60208201526100dd565b61011a61020d3660046106c5565b6001600160a01b03918216600090815260036020908152604080832093909416825291909152205490565b60006102453384846104d0565b5060015b92915050565b60006001600160a01b038316610267576102676106f8565b6001600160a01b03841661027d5761027d6106f8565b6001600160a01b03841660009081526003602090815260408083203384529091529020546102e75760405162461bcd60e51b81526020600482015260126024820152714572726f72205472616e7366657246726f6d60701b60448201526064015b60405180910390fd5b6001600160a01b03841660009081526003602090815260408083203384529091528120805484929061031a908490610724565b9091555061032b9050848484610532565b5060019392505050565b6001546001600160a01b031633146103835760405162461bcd60e51b81526020600482015260116024820152702cb7ba9030b932903737ba1037bbb732b960791b60448201526064016102de565b6001546001600160a01b0316331461039a57600080fd5b806000808282546103ab9190610737565b90915550506001600160a01b038216600090815260026020526040812080548392906103d8908490610737565b90915550506040518181526001600160a01b038316906000907fddf252ad1be2c89b69c2b068fc378daa952ba7f163c4a11628f55a4df523b3ef9060200160405180910390a35050565b6001546001600160a01b031633146104705760405162461bcd60e51b81526020600482015260116024820152702cb7ba9030b932903737ba1037bbb732b960791b60448201526064016102de565b6001546001600160a01b0316331461048757600080fd5b6001600160a01b038216600090815260026020526040812080548392906104af908490610724565b92505081905550806000808282546104c79190610724565b90915550505050565b6001600160a01b0383811660008181526003602090815260408083209487168084529482529182902085905590518481527f8c5be1e5ebec7d5bd14f71427d1e84f3dd0314c0f7b2291e5b200ac8c7c3b92591015b60405180910390a3505050565b6001600160a01b0383166000908152600260205260408120805483929061055a908490610724565b90915550506001600160a01b03821660009081526002602052604081208054839290610587908490610737565b92505081905550816001600160a01b0316836001600160a01b03167fddf252ad1be2c89b69c2b068fc378daa952ba7f163c4a11628f55a4df523b3ef8360405161052591815260200190565b600060208083528351808285015260005b81811015610600578581018301518582016040015282016105e4565b506000604082860101526040601f19601f8301168501019250505092915050565b80356001600160a01b038116811461063857600080fd5b919050565b6000806040838503121561065057600080fd5b61065983610621565b946020939093013593505050565b60008060006060848603121561067c57600080fd5b61068584610621565b925061069360208501610621565b9150604084013590509250925092565b6000602082840312156106b557600080fd5b6106be82610621565b9392505050565b600080604083850312156106d857600080fd5b6106e183610621565b91506106ef60208401610621565b90509250929050565b634e487b7160e01b600052600160045260246000fd5b634e487b7160e01b600052601160045260246000fd5b818103818111156102495761024961070e565b808201808211156102495761024961070e56fea2646970667358221220b0097782c91a6e134eb0c15fbe312c9942473cd36bff6a60d32db42f1aaf78a864736f6c63430008100033",
    "linkReferences": {}
  },
  "methodIdentifiers": {
    "_burn(address,uint256)": "6161eb18",
    "_mint(address,uint256)": "4e6ec247",
    "allowance(address,address)": "dd62ed3e",
    "allowances(address,address)": "55b6ed5c",
    "approve(address,uint256)": "095ea7b3",
    "balanceOf(address)": "70a08231",
    "balances(address)": "27e235e3",
    "decimals()": "313ce567",
    "name()": "06fdde03",
    "symbol()": "95d89b41",
    "totalSupply()": "18160ddd",
    "transferFrom(address,address,uint256)": "23b872dd"
  },
  "id": 8
}