{
  "abi": [
    {
      "inputs": [
        {
          "internalType": "address",
          "name": "tokenX_",
          "type": "address"
        },
        {
          "internalType": "address",
          "name": "tokenY_",
          "type": "address"
        }
      ],
      "stateMutability": "nonpayable",
      "type": "constructor"
    },
    {
      "anonymous": false,
      "inputs": [
        {
          "indexed": true,
          "internalType": "address",
          "name": "owner",
          "type": "address"
        },
        {
          "indexed": true,
          "internalType": "address",
          "name": "spender",
          "type": "address"
        },
        {
          "indexed": false,
          "internalType": "uint256",
          "name": "value",
          "type": "uint256"
        }
      ],
      "name": "Approval",
      "type": "event"
    },
    {
      "anonymous": false,
      "inputs": [
        {
          "indexed": false,
          "internalType": "address",
          "name": "addr",
          "type": "address"
        }
      ],
      "name": "LogAddress",
      "type": "event"
    },
    {
      "anonymous": false,
      "inputs": [
        {
          "indexed": false,
          "internalType": "uint256",
          "name": "num",
          "type": "uint256"
        }
      ],
      "name": "LogAmount",
      "type": "event"
    },
    {
      "anonymous": false,
      "inputs": [
        {
          "indexed": true,
          "internalType": "address",
          "name": "from",
          "type": "address"
        },
        {
          "indexed": true,
          "internalType": "address",
          "name": "to",
          "type": "address"
        },
        {
          "indexed": false,
          "internalType": "uint256",
          "name": "value",
          "type": "uint256"
        }
      ],
      "name": "Transfer",
      "type": "event"
    },
    {
      "inputs": [
        {
          "internalType": "address",
          "name": "from_",
          "type": "address"
        },
        {
          "internalType": "uint256",
          "name": "amount_",
          "type": "uint256"
        }
      ],
      "name": "_burn",
      "outputs": [],
      "stateMutability": "nonpayable",
      "type": "function"
    },
    {
      "inputs": [
        {
          "internalType": "address",
          "name": "to_",
          "type": "address"
        },
        {
          "internalType": "uint256",
          "name": "amount_",
          "type": "uint256"
        }
      ],
      "name": "_mint",
      "outputs": [],
      "stateMutability": "nonpayable",
      "type": "function"
    },
    {
      "inputs": [
        {
          "internalType": "uint256",
          "name": "tokenXAmount",
          "type": "uint256"
        },
        {
          "internalType": "uint256",
          "name": "tokenYAmount",
          "type": "uint256"
        },
        {
          "internalType": "uint256",
          "name": "minimumLPTokenAmount",
          "type": "uint256"
        }
      ],
      "name": "addLiquidity",
      "outputs": [
        {
          "internalType": "uint256",
          "name": "LPTokenAmount",
          "type": "uint256"
        }
      ],
      "stateMutability": "nonpayable",
      "type": "function"
    },
    {
      "inputs": [
        {
          "internalType": "address",
          "name": "owner_",
          "type": "address"
        },
        {
          "internalType": "address",
          "name": "spender_",
          "type": "address"
        }
      ],
      "name": "allowance",
      "outputs": [
        {
          "internalType": "uint256",
          "name": "",
          "type": "uint256"
        }
      ],
      "stateMutability": "view",
      "type": "function"
    },
    {
      "inputs": [
        {
          "internalType": "address",
          "name": "",
          "type": "address"
        },
        {
          "internalType": "address",
          "name": "",
          "type": "address"
        }
      ],
      "name": "allowances",
      "outputs": [
        {
          "internalType": "uint256",
          "name": "",
          "type": "uint256"
        }
      ],
      "stateMutability": "view",
      "type": "function"
    },
    {
      "inputs": [
        {
          "internalType": "address",
          "name": "to_",
          "type": "address"
        },
        {
          "internalType": "uint256",
          "name": "amount_",
          "type": "uint256"
        }
      ],
      "name": "approve",
      "outputs": [
        {
          "internalType": "bool",
          "name": "",
          "type": "bool"
        }
      ],
      "stateMutability": "nonpayable",
      "type": "function"
    },
    {
      "inputs": [
        {
          "internalType": "address",
          "name": "owner_",
          "type": "address"
        }
      ],
      "name": "balanceOf",
      "outputs": [
        {
          "internalType": "uint256",
          "name": "",
          "type": "uint256"
        }
      ],
      "stateMutability": "view",
      "type": "function"
    },
    {
      "inputs": [
        {
          "internalType": "address",
          "name": "",
          "type": "address"
        }
      ],
      "name": "balances",
      "outputs": [
        {
          "internalType": "uint256",
          "name": "",
          "type": "uint256"
        }
      ],
      "stateMutability": "view",
      "type": "function"
    },
    {
      "inputs": [],
      "name": "decimals",
      "outputs": [
        {
          "internalType": "uint256",
          "name": "",
          "type": "uint256"
        }
      ],
      "stateMutability": "pure",
      "type": "function"
    },
    {
      "inputs": [
        {
          "internalType": "uint256",
          "name": "prevReserve",
          "type": "uint256"
        },
        {
          "internalType": "uint256",
          "name": "afterReserve",
          "type": "uint256"
        }
      ],
      "name": "getPrice",
      "outputs": [
        {
          "internalType": "uint256",
          "name": "amount",
          "type": "uint256"
        }
      ],
      "stateMutability": "nonpayable",
      "type": "function"
    },
    {
      "inputs": [],
      "name": "name",
      "outputs": [
        {
          "internalType": "string",
          "name": "",
          "type": "string"
        }
      ],
      "stateMutability": "pure",
      "type": "function"
    },
    {
      "inputs": [
        {
          "internalType": "uint256",
          "name": "LPTokenAmount",
          "type": "uint256"
        },
        {
          "internalType": "uint256",
          "name": "minimumTokenXAmount",
          "type": "uint256"
        },
        {
          "internalType": "uint256",
          "name": "minimumTokenYAmount",
          "type": "uint256"
        }
      ],
      "name": "removeLiquidity",
      "outputs": [],
      "stateMutability": "nonpayable",
      "type": "function"
    },
    {
      "inputs": [
        {
          "internalType": "uint256",
          "name": "tokenXAmount",
          "type": "uint256"
        },
        {
          "internalType": "uint256",
          "name": "tokenYAmount",
          "type": "uint256"
        },
        {
          "internalType": "uint256",
          "name": "tokenMinimumOutputAmount",
          "type": "uint256"
        }
      ],
      "name": "swap",
      "outputs": [
        {
          "internalType": "uint256",
          "name": "outputAmount",
          "type": "uint256"
        }
      ],
      "stateMutability": "nonpayable",
      "type": "function"
    },
    {
      "inputs": [],
      "name": "symbol",
      "outputs": [
        {
          "internalType": "string",
          "name": "",
          "type": "string"
        }
      ],
      "stateMutability": "pure",
      "type": "function"
    },
    {
      "inputs": [],
      "name": "totalSupply",
      "outputs": [
        {
          "internalType": "uint256",
          "name": "",
          "type": "uint256"
        }
      ],
      "stateMutability": "view",
      "type": "function"
    },
    {
      "inputs": [
        {
          "internalType": "address",
          "name": "to",
          "type": "address"
        },
        {
          "internalType": "uint256",
          "name": "lpAmount",
          "type": "uint256"
        }
      ],
      "name": "transfer",
      "outputs": [
        {
          "internalType": "bool",
          "name": "",
          "type": "bool"
        }
      ],
      "stateMutability": "nonpayable",
      "type": "function"
    },
    {
      "inputs": [
        {
          "internalType": "address",
          "name": "from_",
          "type": "address"
        },
        {
          "internalType": "address",
          "name": "to_",
          "type": "address"
        },
        {
          "internalType": "uint256",
          "name": "amount_",
          "type": "uint256"
        }
      ],
      "name": "transferFrom",
      "outputs": [
        {
          "internalType": "bool",
          "name": "",
          "type": "bool"
        }
      ],
      "stateMutability": "nonpayable",
      "type": "function"
    },
    {
      "inputs": [
        {
          "internalType": "uint256",
          "name": "curReserveX",
          "type": "uint256"
        },
        {
          "internalType": "uint256",
          "name": "curReserveY",
          "type": "uint256"
        }
      ],
      "name": "update",
      "outputs": [],
      "stateMutability": "nonpayable",
      "type": "function"
    }
  ],
  "bytecode": {
    "object": "0x60806040526064600a553480156200001657600080fd5b506040516200218d3803806200218d8339810160408190526200003991620000e3565b600180546001600160a01b031916331790556040516200005990620000b8565b604051809103906000f08015801562000076573d6000803e3d6000fd5b50600480546001600160a01b03199081166001600160a01b0393841617909155600580548216948316949094179093556006805490931691161790556200011b565b6107b280620019db83390190565b80516001600160a01b0381168114620000de57600080fd5b919050565b60008060408385031215620000f757600080fd5b6200010283620000c6565b91506200011260208401620000c6565b90509250929050565b6118b0806200012b6000396000f3fe608060405234801561001057600080fd5b50600436106101165760003560e01c806355b6ed5c116100a2578063857620e111610071578063857620e11461027957806395d89b411461028c5780639d9892cd146102ad578063a9059cbb146102c0578063dd62ed3e146102d357600080fd5b806355b6ed5c146101ff5780635cf4ee911461022a5780636161eb181461023d57806370a082311461025057600080fd5b806327e235e3116100e957806327e235e31461019d5780632fb565e8146101bd578063313ce567146101d2578063422f1043146101d95780634e6ec247146101ec57600080fd5b806306fdde031461011b578063095ea7b31461015557806318160ddd1461017857806323b872dd1461018a575b600080fd5b60408051808201909152600c81526b447265616d416361646d657960a01b60208201525b60405161014c9190611601565b60405180910390f35b610168610163366004611666565b61030c565b604051901515815260200161014c565b6000545b60405190815260200161014c565b610168610198366004611690565b610323565b61017c6101ab3660046116cc565b60026020526000908152604090205481565b6101d06101cb3660046116e7565b610409565b005b601261017c565b61017c6101e7366004611709565b610424565b6101d06101fa366004611666565b61082a565b61017c61020d366004611735565b600360209081526000928352604080842090915290825290205481565b61017c6102383660046116e7565b610917565b6101d061024b366004611666565b61092a565b61017c61025e3660046116cc565b6001600160a01b031660009081526002602052604090205490565b6101d0610287366004611709565b6109d8565b604080518082019091526005815264445245414d60d81b602082015261013f565b61017c6102bb366004611709565b610f05565b6101686102ce366004611666565b6113bf565b61017c6102e1366004611735565b6001600160a01b03918216600090815260036020908152604080832093909416825291909152205490565b6000610319338484611434565b5060015b92915050565b60006001600160a01b03831661033b5761033b611768565b6001600160a01b03841661035157610351611768565b6001600160a01b03841660009081526003602090815260408083203384529091529020546103bb5760405162461bcd60e51b81526020600482015260126024820152714572726f72205472616e7366657246726f6d60701b60448201526064015b60405180910390fd5b6001600160a01b0384166000908152600360209081526040808320338452909152812080548492906103ee908490611794565b909155506103ff9050848484611496565b5060019392505050565b6007829055600881905561041d81836117a7565b6009555050565b6000831580159061043457508215155b61043d57600080fd5b6005546006546007546008546001600160a01b03938416939092169160008083158015610468575082155b1561048357888a1461047957600080fd5b5088905087610575565b60006104908b8686611537565b90508981116104a4578a9250905080610573565b60006104b18b8688611537565b90508b8111156104c3576104c3611768565b60048054604080516318160ddd60e01b815290519396508d955086936000936001600160a01b03909316926318160ddd928082019260209290918290030181865afa158015610516573d6000803e3d6000fd5b505050506040513d601f19601f8201168201806040525081019061053a91906117c6565b905061056e8761054a83886117a7565b61055491906117df565b8761055f84886117a7565b61056991906117df565b61157b565b995050505b505b6040516323b872dd60e01b81526001600160a01b038716906323b872dd906105a590339030908790600401611801565b6020604051808303816000875af11580156105c4573d6000803e3d6000fd5b505050506040513d601f19601f820116820180604052508101906105e89190611825565b506040516323b872dd60e01b81526001600160a01b038616906323b872dd9061061990339030908690600401611801565b6020604051808303816000875af1158015610638573d6000803e3d6000fd5b505050506040513d601f19601f8201168201806040525081019061065c9190611825565b506040516370a0823160e01b81523060048201526000906001600160a01b038816906370a0823190602401602060405180830381865afa1580156106a4573d6000803e3d6000fd5b505050506040513d601f19601f820116820180604052508101906106c891906117c6565b6040516370a0823160e01b81523060048201529091506000906001600160a01b038816906370a0823190602401602060405180830381865afa158015610712573d6000803e3d6000fd5b505050506040513d601f19601f8201168201806040525081019061073691906117c6565b90508284036107545761075161074c84866117a7565b611591565b98505b886000036107e9576000600460009054906101000a90046001600160a01b03166001600160a01b03166318160ddd6040518163ffffffff1660e01b8152600401602060405180830381865afa1580156107b1573d6000803e3d6000fd5b505050506040513d601f19601f820116820180604052508101906107d591906117c6565b90506107e58761054a83886117a7565b9950505b600089116107f657600080fd5b888a1061080257600080fd5b600061080e338b6113bf565b905061081a8383610409565b5050505050505050509392505050565b6001546001600160a01b031633146108785760405162461bcd60e51b81526020600482015260116024820152702cb7ba9030b932903737ba1037bbb732b960791b60448201526064016103b2565b6001546001600160a01b0316331461088f57600080fd5b806000808282546108a09190611847565b90915550506001600160a01b038216600090815260026020526040812080548392906108cd908490611847565b90915550506040518181526001600160a01b038316906000907fddf252ad1be2c89b69c2b068fc378daa952ba7f163c4a11628f55a4df523b3ef9060200160405180910390a35050565b60006109238284611794565b9392505050565b6001546001600160a01b031633146109785760405162461bcd60e51b81526020600482015260116024820152702cb7ba9030b932903737ba1037bbb732b960791b60448201526064016103b2565b6001546001600160a01b0316331461098f57600080fd5b6001600160a01b038216600090815260026020526040812080548392906109b7908490611794565b92505081905550806000808282546109cf9190611794565b90915550505050565b600083116109e557600080fd5b600480546040516370a0823160e01b815233928101929092526000916001600160a01b03909116906370a0823190602401602060405180830381865afa158015610a33573d6000803e3d6000fd5b505050506040513d601f19601f82011682018060405250810190610a5791906117c6565b905080841115610a65578093505b6005546006546040516370a0823160e01b81523060048201526001600160a01b03928316929091169060009083906370a0823190602401602060405180830381865afa158015610ab9573d6000803e3d6000fd5b505050506040513d601f19601f82011682018060405250810190610add91906117c6565b6040516370a0823160e01b81523060048201529091506000906001600160a01b038416906370a0823190602401602060405180830381865afa158015610b27573d6000803e3d6000fd5b505050506040513d601f19601f82011682018060405250810190610b4b91906117c6565b90506000600460009054906101000a90046001600160a01b03166001600160a01b03166318160ddd6040518163ffffffff1660e01b8152600401602060405180830381865afa158015610ba2573d6000803e3d6000fd5b505050506040513d601f19601f82011682018060405250810190610bc691906117c6565b905060008111610bd557600080fd5b600081610be2858c6117a7565b610bec91906117df565b9050600082610bfb858d6117a7565b610c0591906117df565b9050600082118015610c175750600081115b610c2057600080fd5b898210158015610c305750888110155b610c3957600080fd5b60048054604051630c2c3d6360e31b81523392810192909252602482018d90526001600160a01b031690636161eb1890604401600060405180830381600087803b158015610c8657600080fd5b505af1158015610c9a573d6000803e3d6000fd5b505060405163095ea7b360e01b8152336004820152602481018590526001600160a01b038a16925063095ea7b391506044016020604051808303816000875af1158015610ceb573d6000803e3d6000fd5b505050506040513d601f19601f82011682018060405250810190610d0f9190611825565b5060405163095ea7b360e01b8152336004820152602481018290526001600160a01b0387169063095ea7b3906044016020604051808303816000875af1158015610d5d573d6000803e3d6000fd5b505050506040513d601f19601f82011682018060405250810190610d819190611825565b5060405163a9059cbb60e01b8152336004820152602481018390526001600160a01b0388169063a9059cbb906044016020604051808303816000875af1158015610dcf573d6000803e3d6000fd5b505050506040513d601f19601f82011682018060405250810190610df39190611825565b5060405163a9059cbb60e01b8152336004820152602481018290526001600160a01b0387169063a9059cbb906044016020604051808303816000875af1158015610e41573d6000803e3d6000fd5b505050506040513d601f19601f82011682018060405250810190610e659190611825565b50610e7d610e738387611794565b6101cb8387611794565b60008051602061185b833981519152600754604051610e9e91815260200190565b60405180910390a160008051602061185b833981519152600854604051610ec791815260200190565b60405180910390a160008051602061185b833981519152600954604051610ef091815260200190565b60405180910390a15050505050505050505050565b6000831580610f12575082155b610f1b57600080fd5b6007546008548115801590610f2f57508015155b610f3857600080fd5b6005546006546040516370a0823160e01b81523060048201526001600160a01b03928316929091169060009083906370a0823190602401602060405180830381865afa158015610f8c573d6000803e3d6000fd5b505050506040513d601f19601f82011682018060405250810190610fb091906117c6565b6040516370a0823160e01b81523060048201529091506000906001600160a01b038416906370a0823190602401602060405180830381865afa158015610ffa573d6000803e3d6000fd5b505050506040513d601f19601f8201168201806040525081019061101e91906117c6565b90506000808b156111d957856001600160a01b03166323b872dd33308f6040518463ffffffff1660e01b815260040161105993929190611801565b6020604051808303816000875af1158015611078573d6000803e3d6000fd5b505050506040513d601f19601f8201168201806040525081019061109c9190611825565b506040516370a0823160e01b81523060048201526001600160a01b038716906370a0823190602401602060405180830381865afa1580156110e1573d6000803e3d6000fd5b505050506040513d601f19601f8201168201806040525081019061110591906117c6565b93508360095461111591906117df565b90506111218382610917565b915060006103e8600a548461113691906117a7565b61114091906117df565b61114a9084611794565b905087811115801561115c57508a8310155b61116557600080fd5b60405163a9059cbb60e01b8152336004820152602481018290526001600160a01b0387169063a9059cbb906044016020604051808303816000875af11580156111b2573d6000803e3d6000fd5b505050506040513d601f19601f820116820180604052508101906111d69190611825565b50505b8a1561138f57846001600160a01b03166323b872dd33308e6040518463ffffffff1660e01b815260040161120f93929190611801565b6020604051808303816000875af115801561122e573d6000803e3d6000fd5b505050506040513d601f19601f820116820180604052508101906112529190611825565b506040516370a0823160e01b81523060048201526001600160a01b038616906370a0823190602401602060405180830381865afa158015611297573d6000803e3d6000fd5b505050506040513d601f19601f820116820180604052508101906112bb91906117c6565b9250826009546112cb91906117df565b90506112d78482610917565b915060006103e8600a54846112ec91906117a7565b6112f691906117df565b6113009084611794565b905088811115801561131257508a8310155b61131b57600080fd5b60405163a9059cbb60e01b8152336004820152602481018290526001600160a01b0388169063a9059cbb906044016020604051808303816000875af1158015611368573d6000803e3d6000fd5b505050506040513d601f19601f8201168201806040525081019061138c9190611825565b50505b60405182815260008051602061185b8339815191529060200160405180910390a150505050505050509392505050565b60048054604051634e6ec24760e01b81526001600160a01b03858116938201939093526024810184905260009290911690634e6ec24790604401600060405180830381600087803b15801561141357600080fd5b505af1158015611427573d6000803e3d6000fd5b5060019695505050505050565b6001600160a01b0383811660008181526003602090815260408083209487168084529482529182902085905590518481527f8c5be1e5ebec7d5bd14f71427d1e84f3dd0314c0f7b2291e5b200ac8c7c3b92591015b60405180910390a3505050565b6001600160a01b038316600090815260026020526040812080548392906114be908490611794565b90915550506001600160a01b038216600090815260026020526040812080548392906114eb908490611847565b92505081905550816001600160a01b0316836001600160a01b03167fddf252ad1be2c89b69c2b068fc378daa952ba7f163c4a11628f55a4df523b3ef8360405161148991815260200190565b600080841161154557600080fd5b6000831180156115555750600082115b61155e57600080fd5b8261156983866117a7565b61157391906117df565b949350505050565b600081831061158a5781610923565b5090919050565b600060038211156115f257508060006115ab6002836117df565b6115b6906001611847565b90505b818110156115ec579050806002816115d181866117df565b6115db9190611847565b6115e591906117df565b90506115b9565b50919050565b81156115fc575060015b919050565b600060208083528351808285015260005b8181101561162e57858101830151858201604001528201611612565b506000604082860101526040601f19601f8301168501019250505092915050565b80356001600160a01b03811681146115fc57600080fd5b6000806040838503121561167957600080fd5b6116828361164f565b946020939093013593505050565b6000806000606084860312156116a557600080fd5b6116ae8461164f565b92506116bc6020850161164f565b9150604084013590509250925092565b6000602082840312156116de57600080fd5b6109238261164f565b600080604083850312156116fa57600080fd5b50508035926020909101359150565b60008060006060848603121561171e57600080fd5b505081359360208301359350604090920135919050565b6000806040838503121561174857600080fd5b6117518361164f565b915061175f6020840161164f565b90509250929050565b634e487b7160e01b600052600160045260246000fd5b634e487b7160e01b600052601160045260246000fd5b8181038181111561031d5761031d61177e565b60008160001904831182151516156117c1576117c161177e565b500290565b6000602082840312156117d857600080fd5b5051919050565b6000826117fc57634e487b7160e01b600052601260045260246000fd5b500490565b6001600160a01b039384168152919092166020820152604081019190915260600190565b60006020828403121561183757600080fd5b8151801515811461092357600080fd5b8082018082111561031d5761031d61177e56fe2b6d16daba1ad641729e00d9e8a460dbd835d4219388907a9a585ab8ac2532cba264697066735822122069f515cb1d70cd5d2010f20c0b32dc37247596ac728422e9d9b41fa0602f26d064736f6c63430008100033608060405234801561001057600080fd5b50600180546001600160a01b03191633179055610780806100326000396000f3fe608060405234801561001057600080fd5b50600436106100b45760003560e01c80634e6ec247116100715780634e6ec2471461016257806355b6ed5c146101775780636161eb18146101a257806370a08231146101b557806395d89b41146101de578063dd62ed3e146101ff57600080fd5b806306fdde03146100b9578063095ea7b3146100f357806318160ddd1461011657806323b872dd1461012857806327e235e31461013b578063313ce5671461015b575b600080fd5b60408051808201909152600c81526b447265616d416361646d657960a01b60208201525b6040516100ea91906105d3565b60405180910390f35b61010661010136600461063d565b610238565b60405190151581526020016100ea565b6000545b6040519081526020016100ea565b610106610136366004610667565b61024f565b61011a6101493660046106a3565b60026020526000908152604090205481565b601261011a565b61017561017036600461063d565b610335565b005b61011a6101853660046106c5565b600360209081526000928352604080842090915290825290205481565b6101756101b036600461063d565b610422565b61011a6101c33660046106a3565b6001600160a01b031660009081526002602052604090205490565b604080518082019091526005815264445245414d60d81b60208201526100dd565b61011a61020d3660046106c5565b6001600160a01b03918216600090815260036020908152604080832093909416825291909152205490565b60006102453384846104d0565b5060015b92915050565b60006001600160a01b038316610267576102676106f8565b6001600160a01b03841661027d5761027d6106f8565b6001600160a01b03841660009081526003602090815260408083203384529091529020546102e75760405162461bcd60e51b81526020600482015260126024820152714572726f72205472616e7366657246726f6d60701b60448201526064015b60405180910390fd5b6001600160a01b03841660009081526003602090815260408083203384529091528120805484929061031a908490610724565b9091555061032b9050848484610532565b5060019392505050565b6001546001600160a01b031633146103835760405162461bcd60e51b81526020600482015260116024820152702cb7ba9030b932903737ba1037bbb732b960791b60448201526064016102de565b6001546001600160a01b0316331461039a57600080fd5b806000808282546103ab9190610737565b90915550506001600160a01b038216600090815260026020526040812080548392906103d8908490610737565b90915550506040518181526001600160a01b038316906000907fddf252ad1be2c89b69c2b068fc378daa952ba7f163c4a11628f55a4df523b3ef9060200160405180910390a35050565b6001546001600160a01b031633146104705760405162461bcd60e51b81526020600482015260116024820152702cb7ba9030b932903737ba1037bbb732b960791b60448201526064016102de565b6001546001600160a01b0316331461048757600080fd5b6001600160a01b038216600090815260026020526040812080548392906104af908490610724565b92505081905550806000808282546104c79190610724565b90915550505050565b6001600160a01b0383811660008181526003602090815260408083209487168084529482529182902085905590518481527f8c5be1e5ebec7d5bd14f71427d1e84f3dd0314c0f7b2291e5b200ac8c7c3b92591015b60405180910390a3505050565b6001600160a01b0383166000908152600260205260408120805483929061055a908490610724565b90915550506001600160a01b03821660009081526002602052604081208054839290610587908490610737565b92505081905550816001600160a01b0316836001600160a01b03167fddf252ad1be2c89b69c2b068fc378daa952ba7f163c4a11628f55a4df523b3ef8360405161052591815260200190565b600060208083528351808285015260005b81811015610600578581018301518582016040015282016105e4565b506000604082860101526040601f19601f8301168501019250505092915050565b80356001600160a01b038116811461063857600080fd5b919050565b6000806040838503121561065057600080fd5b61065983610621565b946020939093013593505050565b60008060006060848603121561067c57600080fd5b61068584610621565b925061069360208501610621565b9150604084013590509250925092565b6000602082840312156106b557600080fd5b6106be82610621565b9392505050565b600080604083850312156106d857600080fd5b6106e183610621565b91506106ef60208401610621565b90509250929050565b634e487b7160e01b600052600160045260246000fd5b634e487b7160e01b600052601160045260246000fd5b818103818111156102495761024961070e565b808201808211156102495761024961070e56fea2646970667358221220b0097782c91a6e134eb0c15fbe312c9942473cd36bff6a60d32db42f1aaf78a864736f6c63430008100033",
    "linkReferences": {}
  },
  "methodIdentifiers": {
    "_burn(address,uint256)": "6161eb18",
    "_mint(address,uint256)": "4e6ec247",
    "addLiquidity(uint256,uint256,uint256)": "422f1043",
    "allowance(address,address)": "dd62ed3e",
    "allowances(address,address)": "55b6ed5c",
    "approve(address,uint256)": "095ea7b3",
    "balanceOf(address)": "70a08231",
    "balances(address)": "27e235e3",
    "decimals()": "313ce567",
    "getPrice(uint256,uint256)": "5cf4ee91",
    "name()": "06fdde03",
    "removeLiquidity(uint256,uint256,uint256)": "857620e1",
    "swap(uint256,uint256,uint256)": "9d9892cd",
    "symbol()": "95d89b41",
    "totalSupply()": "18160ddd",
    "transfer(address,uint256)": "a9059cbb",
    "transferFrom(address,address,uint256)": "23b872dd",
    "update(uint256,uint256)": "2fb565e8"
  },
  "id": 7
}