{
  "abi": [
    {
      "inputs": [],
      "stateMutability": "nonpayable",
      "type": "constructor"
    },
    {
      "anonymous": false,
      "inputs": [
        {
          "indexed": true,
          "internalType": "address",
          "name": "owner",
          "type": "address"
        },
        {
          "indexed": true,
          "internalType": "address",
          "name": "spender",
          "type": "address"
        },
        {
          "indexed": false,
          "internalType": "uint256",
          "name": "value",
          "type": "uint256"
        }
      ],
      "name": "Approval",
      "type": "event"
    },
    {
      "anonymous": false,
      "inputs": [
        {
          "indexed": true,
          "internalType": "address",
          "name": "from",
          "type": "address"
        },
        {
          "indexed": true,
          "internalType": "address",
          "name": "to",
          "type": "address"
        },
        {
          "indexed": false,
          "internalType": "uint256",
          "name": "value",
          "type": "uint256"
        }
      ],
      "name": "Transfer",
      "type": "event"
    },
    {
      "inputs": [
        {
          "internalType": "address",
          "name": "owner_",
          "type": "address"
        },
        {
          "internalType": "address",
          "name": "spender_",
          "type": "address"
        },
        {
          "internalType": "uint256",
          "name": "amount_",
          "type": "uint256"
        }
      ],
      "name": "_approve",
      "outputs": [],
      "stateMutability": "nonpayable",
      "type": "function"
    },
    {
      "inputs": [
        {
          "internalType": "address",
          "name": "from_",
          "type": "address"
        },
        {
          "internalType": "uint256",
          "name": "amount_",
          "type": "uint256"
        }
      ],
      "name": "_burn",
      "outputs": [],
      "stateMutability": "nonpayable",
      "type": "function"
    },
    {
      "inputs": [],
      "name": "_decimals",
      "outputs": [
        {
          "internalType": "uint256",
          "name": "",
          "type": "uint256"
        }
      ],
      "stateMutability": "view",
      "type": "function"
    },
    {
      "inputs": [
        {
          "internalType": "address",
          "name": "to_",
          "type": "address"
        },
        {
          "internalType": "uint256",
          "name": "amount_",
          "type": "uint256"
        }
      ],
      "name": "_mint",
      "outputs": [],
      "stateMutability": "nonpayable",
      "type": "function"
    },
    {
      "inputs": [],
      "name": "_name",
      "outputs": [
        {
          "internalType": "string",
          "name": "",
          "type": "string"
        }
      ],
      "stateMutability": "view",
      "type": "function"
    },
    {
      "inputs": [],
      "name": "_symbol",
      "outputs": [
        {
          "internalType": "string",
          "name": "",
          "type": "string"
        }
      ],
      "stateMutability": "view",
      "type": "function"
    },
    {
      "inputs": [],
      "name": "_totalSupply",
      "outputs": [
        {
          "internalType": "uint256",
          "name": "",
          "type": "uint256"
        }
      ],
      "stateMutability": "view",
      "type": "function"
    },
    {
      "inputs": [
        {
          "internalType": "address",
          "name": "from_",
          "type": "address"
        },
        {
          "internalType": "address",
          "name": "to_",
          "type": "address"
        },
        {
          "internalType": "uint256",
          "name": "amount_",
          "type": "uint256"
        }
      ],
      "name": "_transfer",
      "outputs": [],
      "stateMutability": "nonpayable",
      "type": "function"
    },
    {
      "inputs": [
        {
          "internalType": "address",
          "name": "owner_",
          "type": "address"
        },
        {
          "internalType": "address",
          "name": "spender_",
          "type": "address"
        }
      ],
      "name": "allowance",
      "outputs": [
        {
          "internalType": "uint256",
          "name": "",
          "type": "uint256"
        }
      ],
      "stateMutability": "view",
      "type": "function"
    },
    {
      "inputs": [
        {
          "internalType": "address",
          "name": "",
          "type": "address"
        },
        {
          "internalType": "address",
          "name": "",
          "type": "address"
        }
      ],
      "name": "allowances",
      "outputs": [
        {
          "internalType": "uint256",
          "name": "",
          "type": "uint256"
        }
      ],
      "stateMutability": "view",
      "type": "function"
    },
    {
      "inputs": [
        {
          "internalType": "address",
          "name": "to_",
          "type": "address"
        },
        {
          "internalType": "uint256",
          "name": "amount_",
          "type": "uint256"
        }
      ],
      "name": "approve",
      "outputs": [
        {
          "internalType": "bool",
          "name": "",
          "type": "bool"
        }
      ],
      "stateMutability": "nonpayable",
      "type": "function"
    },
    {
      "inputs": [
        {
          "internalType": "address",
          "name": "",
          "type": "address"
        }
      ],
      "name": "balance",
      "outputs": [
        {
          "internalType": "uint256",
          "name": "",
          "type": "uint256"
        }
      ],
      "stateMutability": "view",
      "type": "function"
    },
    {
      "inputs": [
        {
          "internalType": "address",
          "name": "owner_",
          "type": "address"
        }
      ],
      "name": "balanceOf",
      "outputs": [
        {
          "internalType": "uint256",
          "name": "",
          "type": "uint256"
        }
      ],
      "stateMutability": "view",
      "type": "function"
    },
    {
      "inputs": [],
      "name": "decimals",
      "outputs": [
        {
          "internalType": "uint256",
          "name": "",
          "type": "uint256"
        }
      ],
      "stateMutability": "pure",
      "type": "function"
    },
    {
      "inputs": [],
      "name": "name",
      "outputs": [
        {
          "internalType": "string",
          "name": "",
          "type": "string"
        }
      ],
      "stateMutability": "pure",
      "type": "function"
    },
    {
      "inputs": [],
      "name": "symbol",
      "outputs": [
        {
          "internalType": "string",
          "name": "",
          "type": "string"
        }
      ],
      "stateMutability": "pure",
      "type": "function"
    },
    {
      "inputs": [],
      "name": "totalSupply",
      "outputs": [
        {
          "internalType": "uint256",
          "name": "",
          "type": "uint256"
        }
      ],
      "stateMutability": "view",
      "type": "function"
    },
    {
      "inputs": [
        {
          "internalType": "address",
          "name": "to_",
          "type": "address"
        },
        {
          "internalType": "uint256",
          "name": "amount_",
          "type": "uint256"
        }
      ],
      "name": "transfer",
      "outputs": [
        {
          "internalType": "bool",
          "name": "",
          "type": "bool"
        }
      ],
      "stateMutability": "nonpayable",
      "type": "function"
    },
    {
      "inputs": [
        {
          "internalType": "address",
          "name": "from_",
          "type": "address"
        },
        {
          "internalType": "address",
          "name": "to_",
          "type": "address"
        },
        {
          "internalType": "uint256",
          "name": "amount_",
          "type": "uint256"
        }
      ],
      "name": "transferFrom",
      "outputs": [
        {
          "internalType": "bool",
          "name": "",
          "type": "bool"
        }
      ],
      "stateMutability": "nonpayable",
      "type": "function"
    }
  ],
  "bytecode": {
    "object": "0x608060405234801561001057600080fd5b50600180546001600160a01b03191633179055610865806100326000396000f3fe608060405234801561001057600080fd5b50600436106101215760003560e01c80634e6ec247116100ad578063a9059cbb11610071578063a9059cbb14610283578063b09f126614610296578063d28d8852146102ba578063dd62ed3e146102e5578063e3d670d71461031e57600080fd5b80634e6ec247146101e857806355b6ed5c146101fb5780636161eb181461022657806370a082311461023957806395d89b411461026257600080fd5b806323b872dd116100f457806323b872dd146101aa57806330e0789e146101bd578063313ce567146101d057806332424aa3146101d75780633eaaf86b146101df57600080fd5b806306fdde0314610126578063095ea7b314610160578063104e81ff1461018357806318160ddd14610198575b600080fd5b60408051808201909152600c81526b447265616d416361646d657960a01b60208201525b60405161015791906106b8565b60405180910390f35b61017361016e366004610722565b61033e565b6040519015158152602001610157565b61019661019136600461074c565b610355565b005b6000545b604051908152602001610157565b6101736101b836600461074c565b6103b7565b6101966101cb36600461074c565b61049d565b601261019c565b61019c601281565b61019c60005481565b6101966101f6366004610722565b61053e565b61019c610209366004610788565b600360209081526000928352604080842090915290825290205481565b610196610234366004610722565b610614565b61019c6102473660046107bb565b6001600160a01b031660009081526002602052604090205490565b604080518082019091526005815264445245414d60d81b602082015261014a565b610173610291366004610722565b6106ab565b61014a60405180604001604052806005815260200164445245414d60d81b81525081565b61014a6040518060400160405280600c81526020016b447265616d416361646d657960a01b81525081565b61019c6102f3366004610788565b6001600160a01b03918216600090815260036020908152604080832093909416825291909152205490565b61019c61032c3660046107bb565b60026020526000908152604090205481565b600061034b338484610355565b5060015b92915050565b6001600160a01b0383811660008181526003602090815260408083209487168084529482529182902085905590518481527f8c5be1e5ebec7d5bd14f71427d1e84f3dd0314c0f7b2291e5b200ac8c7c3b92591015b60405180910390a3505050565b60006001600160a01b0383166103cf576103cf6107dd565b6001600160a01b0384166103e5576103e56107dd565b6001600160a01b038416600090815260036020908152604080832033845290915290205461044f5760405162461bcd60e51b81526020600482015260126024820152714572726f72205472616e7366657246726f6d60701b60448201526064015b60405180910390fd5b6001600160a01b038416600090815260036020908152604080832033845290915281208054849290610482908490610809565b90915550610493905084848461049d565b5060019392505050565b6001600160a01b038316600090815260026020526040812080548392906104c5908490610809565b90915550506001600160a01b038216600090815260026020526040812080548392906104f290849061081c565b92505081905550816001600160a01b0316836001600160a01b03167fddf252ad1be2c89b69c2b068fc378daa952ba7f163c4a11628f55a4df523b3ef836040516103aa91815260200190565b6001546001600160a01b0316331461058c5760405162461bcd60e51b81526020600482015260116024820152702cb7ba9030b932903737ba1037bbb732b960791b6044820152606401610446565b8060008082825461059d919061081c565b90915550506001600160a01b038216600090815260026020526040812080548392906105ca90849061081c565b90915550506040518181526001600160a01b038316906000907fddf252ad1be2c89b69c2b068fc378daa952ba7f163c4a11628f55a4df523b3ef9060200160405180910390a35050565b6001546001600160a01b031633146106625760405162461bcd60e51b81526020600482015260116024820152702cb7ba9030b932903737ba1037bbb732b960791b6044820152606401610446565b6001600160a01b0382166000908152600260205260408120805483929061068a908490610809565b92505081905550806000808282546106a29190610809565b90915550505050565b600061034b33848461049d565b600060208083528351808285015260005b818110156106e5578581018301518582016040015282016106c9565b506000604082860101526040601f19601f8301168501019250505092915050565b80356001600160a01b038116811461071d57600080fd5b919050565b6000806040838503121561073557600080fd5b61073e83610706565b946020939093013593505050565b60008060006060848603121561076157600080fd5b61076a84610706565b925061077860208501610706565b9150604084013590509250925092565b6000806040838503121561079b57600080fd5b6107a483610706565b91506107b260208401610706565b90509250929050565b6000602082840312156107cd57600080fd5b6107d682610706565b9392505050565b634e487b7160e01b600052600160045260246000fd5b634e487b7160e01b600052601160045260246000fd5b8181038181111561034f5761034f6107f3565b8082018082111561034f5761034f6107f356fea26469706673582212204032081cc5d8c38af6ef3b74655b3d52124de119a714920599246b3c1a786ce664736f6c63430008100033",
    "linkReferences": {}
  },
  "methodIdentifiers": {
    "_approve(address,address,uint256)": "104e81ff",
    "_burn(address,uint256)": "6161eb18",
    "_decimals()": "32424aa3",
    "_mint(address,uint256)": "4e6ec247",
    "_name()": "d28d8852",
    "_symbol()": "b09f1266",
    "_totalSupply()": "3eaaf86b",
    "_transfer(address,address,uint256)": "30e0789e",
    "allowance(address,address)": "dd62ed3e",
    "allowances(address,address)": "55b6ed5c",
    "approve(address,uint256)": "095ea7b3",
    "balance(address)": "e3d670d7",
    "balanceOf(address)": "70a08231",
    "decimals()": "313ce567",
    "name()": "06fdde03",
    "symbol()": "95d89b41",
    "totalSupply()": "18160ddd",
    "transfer(address,uint256)": "a9059cbb",
    "transferFrom(address,address,uint256)": "23b872dd"
  },
  "id": 9
}